{
    "_format": "hh-sol-artifact-1",
    "contractName": "MyEpicNFT",
    "sourceName": "contracts/MyEpicNFT.sol",
    "abi": [
        {
            "inputs": [],
            "stateMutability": "nonpayable",
            "type": "constructor"
        },
        {
            "anonymous": false,
            "inputs": [
                {
                    "indexed": true,
                    "internalType": "address",
                    "name": "owner",
                    "type": "address"
                },
                {
                    "indexed": true,
                    "internalType": "address",
                    "name": "approved",
                    "type": "address"
                },
                {
                    "indexed": true,
                    "internalType": "uint256",
                    "name": "tokenId",
                    "type": "uint256"
                }
            ],
            "name": "Approval",
            "type": "event"
        },
        {
            "anonymous": false,
            "inputs": [
                {
                    "indexed": true,
                    "internalType": "address",
                    "name": "owner",
                    "type": "address"
                },
                {
                    "indexed": true,
                    "internalType": "address",
                    "name": "operator",
                    "type": "address"
                },
                {
                    "indexed": false,
                    "internalType": "bool",
                    "name": "approved",
                    "type": "bool"
                }
            ],
            "name": "ApprovalForAll",
            "type": "event"
        },
        {
            "anonymous": false,
            "inputs": [
                {
                    "indexed": false,
                    "internalType": "address",
                    "name": "sender",
                    "type": "address"
                },
                {
                    "indexed": false,
                    "internalType": "uint256",
                    "name": "tokenId",
                    "type": "uint256"
                }
            ],
            "name": "NewEpicNFTMinted",
            "type": "event"
        },
        {
            "anonymous": false,
            "inputs": [
                {
                    "indexed": true,
                    "internalType": "address",
                    "name": "from",
                    "type": "address"
                },
                {
                    "indexed": true,
                    "internalType": "address",
                    "name": "to",
                    "type": "address"
                },
                {
                    "indexed": true,
                    "internalType": "uint256",
                    "name": "tokenId",
                    "type": "uint256"
                }
            ],
            "name": "Transfer",
            "type": "event"
        },
        {
            "inputs": [],
            "name": "MAX_SUPPLY",
            "outputs": [
                {
                    "internalType": "uint256",
                    "name": "",
                    "type": "uint256"
                }
            ],
            "stateMutability": "view",
            "type": "function"
        },
        {
            "inputs": [
                {
                    "internalType": "address",
                    "name": "to",
                    "type": "address"
                },
                {
                    "internalType": "uint256",
                    "name": "tokenId",
                    "type": "uint256"
                }
            ],
            "name": "approve",
            "outputs": [],
            "stateMutability": "nonpayable",
            "type": "function"
        },
        {
            "inputs": [
                {
                    "internalType": "address",
                    "name": "owner",
                    "type": "address"
                }
            ],
            "name": "balanceOf",
            "outputs": [
                {
                    "internalType": "uint256",
                    "name": "",
                    "type": "uint256"
                }
            ],
            "stateMutability": "view",
            "type": "function"
        },
        {
            "inputs": [
                {
                    "internalType": "uint256",
                    "name": "tokenId",
                    "type": "uint256"
                }
            ],
            "name": "getApproved",
            "outputs": [
                {
                    "internalType": "address",
                    "name": "",
                    "type": "address"
                }
            ],
            "stateMutability": "view",
            "type": "function"
        },
        {
            "inputs": [
                {
                    "internalType": "address",
                    "name": "owner",
                    "type": "address"
                },
                {
                    "internalType": "address",
                    "name": "operator",
                    "type": "address"
                }
            ],
            "name": "isApprovedForAll",
            "outputs": [
                {
                    "internalType": "bool",
                    "name": "",
                    "type": "bool"
                }
            ],
            "stateMutability": "view",
            "type": "function"
        },
        {
            "inputs": [],
            "name": "makeAnEpicNFT",
            "outputs": [],
            "stateMutability": "nonpayable",
            "type": "function"
        },
        {
            "inputs": [],
            "name": "name",
            "outputs": [
                {
                    "internalType": "string",
                    "name": "",
                    "type": "string"
                }
            ],
            "stateMutability": "view",
            "type": "function"
        },
        {
            "inputs": [
                {
                    "internalType": "uint256",
                    "name": "tokenId",
                    "type": "uint256"
                }
            ],
            "name": "ownerOf",
            "outputs": [
                {
                    "internalType": "address",
                    "name": "",
                    "type": "address"
                }
            ],
            "stateMutability": "view",
            "type": "function"
        },
        {
            "inputs": [
                {
                    "internalType": "uint256",
                    "name": "tokenId",
                    "type": "uint256"
                }
            ],
            "name": "pickRandomFirstWord",
            "outputs": [
                {
                    "internalType": "string",
                    "name": "",
                    "type": "string"
                }
            ],
            "stateMutability": "view",
            "type": "function"
        },
        {
            "inputs": [
                {
                    "internalType": "uint256",
                    "name": "tokenId",
                    "type": "uint256"
                }
            ],
            "name": "pickRandomSecondWord",
            "outputs": [
                {
                    "internalType": "string",
                    "name": "",
                    "type": "string"
                }
            ],
            "stateMutability": "view",
            "type": "function"
        },
        {
            "inputs": [
                {
                    "internalType": "uint256",
                    "name": "tokenId",
                    "type": "uint256"
                }
            ],
            "name": "pickRandomThirdWord",
            "outputs": [
                {
                    "internalType": "string",
                    "name": "",
                    "type": "string"
                }
            ],
            "stateMutability": "view",
            "type": "function"
        },
        {
            "inputs": [
                {
                    "internalType": "address",
                    "name": "from",
                    "type": "address"
                },
                {
                    "internalType": "address",
                    "name": "to",
                    "type": "address"
                },
                {
                    "internalType": "uint256",
                    "name": "tokenId",
                    "type": "uint256"
                }
            ],
            "name": "safeTransferFrom",
            "outputs": [],
            "stateMutability": "nonpayable",
            "type": "function"
        },
        {
            "inputs": [
                {
                    "internalType": "address",
                    "name": "from",
                    "type": "address"
                },
                {
                    "internalType": "address",
                    "name": "to",
                    "type": "address"
                },
                {
                    "internalType": "uint256",
                    "name": "tokenId",
                    "type": "uint256"
                },
                {
                    "internalType": "bytes",
                    "name": "data",
                    "type": "bytes"
                }
            ],
            "name": "safeTransferFrom",
            "outputs": [],
            "stateMutability": "nonpayable",
            "type": "function"
        },
        {
            "inputs": [
                {
                    "internalType": "address",
                    "name": "operator",
                    "type": "address"
                },
                {
                    "internalType": "bool",
                    "name": "approved",
                    "type": "bool"
                }
            ],
            "name": "setApprovalForAll",
            "outputs": [],
            "stateMutability": "nonpayable",
            "type": "function"
        },
        {
            "inputs": [
                {
                    "internalType": "bytes4",
                    "name": "interfaceId",
                    "type": "bytes4"
                }
            ],
            "name": "supportsInterface",
            "outputs": [
                {
                    "internalType": "bool",
                    "name": "",
                    "type": "bool"
                }
            ],
            "stateMutability": "view",
            "type": "function"
        },
        {
            "inputs": [],
            "name": "symbol",
            "outputs": [
                {
                    "internalType": "string",
                    "name": "",
                    "type": "string"
                }
            ],
            "stateMutability": "view",
            "type": "function"
        },
        {
            "inputs": [
                {
                    "internalType": "uint256",
                    "name": "tokenId",
                    "type": "uint256"
                }
            ],
            "name": "tokenURI",
            "outputs": [
                {
                    "internalType": "string",
                    "name": "",
                    "type": "string"
                }
            ],
            "stateMutability": "view",
            "type": "function"
        },
        {
            "inputs": [
                {
                    "internalType": "address",
                    "name": "from",
                    "type": "address"
                },
                {
                    "internalType": "address",
                    "name": "to",
                    "type": "address"
                },
                {
                    "internalType": "uint256",
                    "name": "tokenId",
                    "type": "uint256"
                }
            ],
            "name": "transferFrom",
            "outputs": [],
            "stateMutability": "nonpayable",
            "type": "function"
        }
    ],
    "bytecode": "0x6080604052603260075560405180610160016040528061012f8152602001620045dd61012f913960099081620000369190620009d5565b506040518060c001604052806040518060400160405280600481526020017f457069630000000000000000000000000000000000000000000000000000000081525081526020016040518060400160405280600981526020017f46616e746173746963000000000000000000000000000000000000000000000081525081526020016040518060400160405280600581526020017f437275646500000000000000000000000000000000000000000000000000000081525081526020016040518060400160405280600581526020017f4372617a7900000000000000000000000000000000000000000000000000000081525081526020016040518060400160405280600a81526020017f4879737465726963616c0000000000000000000000000000000000000000000081525081526020016040518060400160405280600581526020017f4772616e64000000000000000000000000000000000000000000000000000000815250815250600a906006620001b49291906200066e565b506040518060c001604052806040518060400160405280600481526020017f4d6574610000000000000000000000000000000000000000000000000000000081525081526020016040518060400160405280600481526020017f4c6976650000000000000000000000000000000000000000000000000000000081525081526020016040518060400160405280600381526020017f506f70000000000000000000000000000000000000000000000000000000000081525081526020016040518060400160405280600481526020017f437574650000000000000000000000000000000000000000000000000000000081525081526020016040518060400160405280600581526020017f537765657400000000000000000000000000000000000000000000000000000081525081526020016040518060400160405280600381526020017f486f740000000000000000000000000000000000000000000000000000000000815250815250600b906006620003329291906200066e565b506040518060c001604052806040518060400160405280600681526020017f4b697474656e000000000000000000000000000000000000000000000000000081525081526020016040518060400160405280600581526020017f507570707900000000000000000000000000000000000000000000000000000081525081526020016040518060400160405280600681526020017f4d6f6e6b6579000000000000000000000000000000000000000000000000000081525081526020016040518060400160405280600481526020017f426972640000000000000000000000000000000000000000000000000000000081525081526020016040518060400160405280600581526020017f50616e646100000000000000000000000000000000000000000000000000000081525081526020016040518060400160405280600881526020017f456c657068616e74000000000000000000000000000000000000000000000000815250815250600c906006620004b09291906200066e565b50348015620004be57600080fd5b506040518060400160405280600981526020017f5371756172654e465400000000000000000000000000000000000000000000008152506040518060400160405280600681526020017f535155415245000000000000000000000000000000000000000000000000000081525081600090816200053c9190620009d5565b5080600190816200054e9190620009d5565b5050506200059c6040518060400160405280601881526020017f54686973206973206d79204e465420636f6e74726163742e0000000000000000815250620005a260201b620011491760201c565b62000b6f565b6200064281604051602401620005b9919062000b4b565b6040516020818303038152906040527f41304fac000000000000000000000000000000000000000000000000000000007bffffffffffffffffffffffffffffffffffffffffffffffffffffffff19166020820180517bffffffffffffffffffffffffffffffffffffffffffffffffffffffff83818316178352505050506200064560201b60201c565b50565b60008151905060006a636f6e736f6c652e6c6f679050602083016000808483855afa5050505050565b828054828255906000526020600020908101928215620006bb579160200282015b82811115620006ba578251829081620006a99190620009d5565b50916020019190600101906200068f565b5b509050620006ca9190620006ce565b5090565b5b80821115620006f25760008181620006e89190620006f6565b50600101620006cf565b5090565b5080546200070490620007c4565b6000825580601f1062000718575062000739565b601f0160209004906000526020600020908101906200073891906200073c565b5b50565b5b80821115620007575760008160009055506001016200073d565b5090565b600081519050919050565b7f4e487b7100000000000000000000000000000000000000000000000000000000600052604160045260246000fd5b7f4e487b7100000000000000000000000000000000000000000000000000000000600052602260045260246000fd5b60006002820490506001821680620007dd57607f821691505b602082108103620007f357620007f262000795565b5b50919050565b60008190508160005260206000209050919050565b60006020601f8301049050919050565b600082821b905092915050565b6000600883026200085d7fffffffffffffffffffffffffffffffffffffffffffffffffffffffffffffffff826200081e565b6200086986836200081e565b95508019841693508086168417925050509392505050565b6000819050919050565b6000819050919050565b6000620008b6620008b0620008aa8462000881565b6200088b565b62000881565b9050919050565b6000819050919050565b620008d28362000895565b620008ea620008e182620008bd565b8484546200082b565b825550505050565b600090565b62000901620008f2565b6200090e818484620008c7565b505050565b5b8181101562000936576200092a600082620008f7565b60018101905062000914565b5050565b601f82111562000985576200094f81620007f9565b6200095a846200080e565b810160208510156200096a578190505b6200098262000979856200080e565b83018262000913565b50505b505050565b600082821c905092915050565b6000620009aa600019846008026200098a565b1980831691505092915050565b6000620009c5838362000997565b9150826002028217905092915050565b620009e0826200075b565b67ffffffffffffffff811115620009fc57620009fb62000766565b5b62000a088254620007c4565b62000a158282856200093a565b600060209050601f83116001811462000a4d576000841562000a38578287015190505b62000a448582620009b7565b86555062000ab4565b601f19841662000a5d86620007f9565b60005b8281101562000a875784890151825560018201915060208501945060208101905062000a60565b8683101562000aa7578489015162000aa3601f89168262000997565b8355505b6001600288020188555050505b505050505050565b600082825260208201905092915050565b60005b8381101562000aed57808201518184015260208101905062000ad0565b60008484015250505050565b6000601f19601f8301169050919050565b600062000b17826200075b565b62000b23818562000abc565b935062000b3581856020860162000acd565b62000b408162000af9565b840191505092915050565b6000602082019050818103600083015262000b67818462000b0a565b905092915050565b613a5e8062000b7f6000396000f3fe608060405234801561001057600080fd5b50600436106101165760003560e01c806370a08231116100a2578063b88d4fde11610071578063b88d4fde14610305578063c575757a14610321578063c87b56dd14610351578063de9d132f14610381578063e985e9c51461038b57610116565b806370a082311461026b57806395d89b411461029b578063a22cb465146102b9578063b187301f146102d557610116565b806323b872dd116100e957806323b872dd146101b55780632de38d68146101d157806332cb6b0c1461020157806342842e0e1461021f5780636352211e1461023b57610116565b806301ffc9a71461011b57806306fdde031461014b578063081812fc14610169578063095ea7b314610199575b600080fd5b61013560048036038101906101309190612297565b6103bb565b60405161014291906122df565b60405180910390f35b61015361049d565b604051610160919061238a565b60405180910390f35b610183600480360381019061017e91906123e2565b61052f565b6040516101909190612450565b60405180910390f35b6101b360048036038101906101ae9190612497565b610575565b005b6101cf60048036038101906101ca91906124d7565b61068c565b005b6101eb60048036038101906101e691906123e2565b6106ec565b6040516101f8919061238a565b60405180910390f35b610209610862565b6040516102169190612539565b60405180910390f35b610239600480360381019061023491906124d7565b610868565b005b610255600480360381019061025091906123e2565b610888565b6040516102629190612450565b60405180910390f35b61028560048036038101906102809190612554565b610939565b6040516102929190612539565b60405180910390f35b6102a36109f0565b6040516102b0919061238a565b60405180910390f35b6102d360048036038101906102ce91906125ad565b610a82565b005b6102ef60048036038101906102ea91906123e2565b610a98565b6040516102fc919061238a565b60405180910390f35b61031f600480360381019061031a9190612722565b610b90565b005b61033b600480360381019061033691906123e2565b610bf2565b604051610348919061238a565b60405180910390f35b61036b600480360381019061036691906123e2565b610cea565b604051610378919061238a565b60405180910390f35b610389610dfc565b005b6103a560048036038101906103a091906127a5565b6110b5565b6040516103b291906122df565b60405180910390f35b60007f80ac58cd000000000000000000000000000000000000000000000000000000007bffffffffffffffffffffffffffffffffffffffffffffffffffffffff1916827bffffffffffffffffffffffffffffffffffffffffffffffffffffffff1916148061048657507f5b5e139f000000000000000000000000000000000000000000000000000000007bffffffffffffffffffffffffffffffffffffffffffffffffffffffff1916827bffffffffffffffffffffffffffffffffffffffffffffffffffffffff1916145b806104965750610495826111e2565b5b9050919050565b6060600080546104ac90612814565b80601f01602080910402602001604051908101604052809291908181526020018280546104d890612814565b80156105255780601f106104fa57610100808354040283529160200191610525565b820191906000526020600020905b81548152906001019060200180831161050857829003601f168201915b5050505050905090565b600061053a8261124c565b6004600083815260200190815260200160002060009054906101000a900473ffffffffffffffffffffffffffffffffffffffff169050919050565b600061058082610888565b90508073ffffffffffffffffffffffffffffffffffffffff168373ffffffffffffffffffffffffffffffffffffffff16036105f0576040517f08c379a00000000000000000000000000000000000000000000000000000000081526004016105e7906128b7565b60405180910390fd5b8073ffffffffffffffffffffffffffffffffffffffff1661060f611297565b73ffffffffffffffffffffffffffffffffffffffff16148061063e575061063d81610638611297565b6110b5565b5b61067d576040517f08c379a000000000000000000000000000000000000000000000000000000000815260040161067490612949565b60405180910390fd5b610687838361129f565b505050565b61069d610697611297565b82611358565b6106dc576040517f08c379a00000000000000000000000000000000000000000000000000000000081526004016106d3906129db565b60405180910390fd5b6106e78383836113ed565b505050565b606060006107206106fc84611653565b60405160200161070c9190612a83565b6040516020818303038152906040526117b3565b90506107616040518060400160405280600d81526020017f72616e64202d20736565643a2000000000000000000000000000000000000000815250826117e6565b600a80549050816107729190612ad4565b90506107b36040518060400160405280601381526020017f72616e64202d20666972737420776f72643a2000000000000000000000000000815250826117e6565b600a81815481106107c7576107c6612b05565b5b9060005260206000200180546107dc90612814565b80601f016020809104026020016040519081016040528092919081815260200182805461080890612814565b80156108555780601f1061082a57610100808354040283529160200191610855565b820191906000526020600020905b81548152906001019060200180831161083857829003601f168201915b5050505050915050919050565b60075481565b61088383838360405180602001604052806000815250610b90565b505050565b6000806002600084815260200190815260200160002060009054906101000a900473ffffffffffffffffffffffffffffffffffffffff169050600073ffffffffffffffffffffffffffffffffffffffff168173ffffffffffffffffffffffffffffffffffffffff1603610930576040517f08c379a000000000000000000000000000000000000000000000000000000000815260040161092790612b80565b60405180910390fd5b80915050919050565b60008073ffffffffffffffffffffffffffffffffffffffff168273ffffffffffffffffffffffffffffffffffffffff16036109a9576040517f08c379a00000000000000000000000000000000000000000000000000000000081526004016109a090612c12565b60405180910390fd5b600360008373ffffffffffffffffffffffffffffffffffffffff1673ffffffffffffffffffffffffffffffffffffffff168152602001908152602001600020549050919050565b6060600180546109ff90612814565b80601f0160208091040260200160405190810160405280929190818152602001828054610a2b90612814565b8015610a785780601f10610a4d57610100808354040283529160200191610a78565b820191906000526020600020905b815481529060010190602001808311610a5b57829003601f168201915b5050505050905090565b610a94610a8d611297565b8383611882565b5050565b60606000610acc610aa884611653565b604051602001610ab89190612c7e565b6040516020818303038152906040526117b3565b9050600b8054905081610adf9190612ad4565b9050600b8181548110610af557610af4612b05565b5b906000526020600020018054610b0a90612814565b80601f0160208091040260200160405190810160405280929190818152602001828054610b3690612814565b8015610b835780601f10610b5857610100808354040283529160200191610b83565b820191906000526020600020905b815481529060010190602001808311610b6657829003601f168201915b5050505050915050919050565b610ba1610b9b611297565b83611358565b610be0576040517f08c379a0000000000000000000000000000000000000000000000000000000008152600401610bd7906129db565b60405180910390fd5b610bec848484846119ee565b50505050565b60606000610c26610c0284611653565b604051602001610c129190612cec565b6040516020818303038152906040526117b3565b9050600c8054905081610c399190612ad4565b9050600c8181548110610c4f57610c4e612b05565b5b906000526020600020018054610c6490612814565b80601f0160208091040260200160405190810160405280929190818152602001828054610c9090612814565b8015610cdd5780601f10610cb257610100808354040283529160200191610cdd565b820191906000526020600020905b815481529060010190602001808311610cc057829003601f168201915b5050505050915050919050565b6060610cf58261124c565b6000600660008481526020019081526020016000208054610d1590612814565b80601f0160208091040260200160405190810160405280929190818152602001828054610d4190612814565b8015610d8e5780601f10610d6357610100808354040283529160200191610d8e565b820191906000526020600020905b815481529060010190602001808311610d7157829003601f168201915b505050505090506000610d9f611a4a565b90506000815103610db4578192505050610df7565b600082511115610de9578082604051602001610dd1929190612d0e565b60405160208183030381529060405292505050610df7565b610df284611a61565b925050505b919050565b600754610e096008611ac9565b10610e49576040517f08c379a0000000000000000000000000000000000000000000000000000000008152600401610e4090612d7e565b60405180910390fd5b6000610e556008611ac9565b90506000610e62826106ec565b90506000610e6f83610a98565b90506000610e7c84610bf2565b90506000838383604051602001610e9593929190612d9e565b60405160208183030381529060405290506000600982604051602001610ebc929190612eb3565b6040516020818303038152906040529050610f0b6040518060400160405280601581526020017f0a2d2d2d2d2d205356472064617461202d2d2d2d2d0000000000000000000000815250611149565b610f1481611149565b610f526040518060400160405280601581526020017f2d2d2d2d2d2d2d2d2d2d2d2d2d2d2d2d2d2d2d2d0a0000000000000000000000815250611149565b6000610f8683610f6184611ad7565b604051602001610f72929190613038565b604051602081830303815290604052611ad7565b9050600081604051602001610f9b91906130c9565b6040516020818303038152906040529050610fea6040518060400160405280601581526020017f0a2d2d2d2d2d20546f6b656e20555249202d2d2d2d0000000000000000000000815250611149565b610ff381611149565b6110316040518060400160405280601581526020017f2d2d2d2d2d2d2d2d2d2d2d2d2d2d2d2d2d2d2d2d0a0000000000000000000000815250611149565b61103b3389611c6e565b6110458882611c8c565b6110686040518060600160405280602581526020016139c4602591398933611cf9565b6110726008611d98565b7febb98688741ffa4c7589bf325de30cf7becb63de567842e1ccdb6cb949fdc82c33896040516110a39291906130eb565b60405180910390a15050505050505050565b6000600560008473ffffffffffffffffffffffffffffffffffffffff1673ffffffffffffffffffffffffffffffffffffffff16815260200190815260200160002060008373ffffffffffffffffffffffffffffffffffffffff1673ffffffffffffffffffffffffffffffffffffffff16815260200190815260200160002060009054906101000a900460ff16905092915050565b6111df8160405160240161115d919061238a565b6040516020818303038152906040527f41304fac000000000000000000000000000000000000000000000000000000007bffffffffffffffffffffffffffffffffffffffffffffffffffffffff19166020820180517bffffffffffffffffffffffffffffffffffffffffffffffffffffffff8381831617835250505050611dae565b50565b60007f01ffc9a7000000000000000000000000000000000000000000000000000000007bffffffffffffffffffffffffffffffffffffffffffffffffffffffff1916827bffffffffffffffffffffffffffffffffffffffffffffffffffffffff1916149050919050565b61125581611dd7565b611294576040517f08c379a000000000000000000000000000000000000000000000000000000000815260040161128b90612b80565b60405180910390fd5b50565b600033905090565b816004600083815260200190815260200160002060006101000a81548173ffffffffffffffffffffffffffffffffffffffff021916908373ffffffffffffffffffffffffffffffffffffffff160217905550808273ffffffffffffffffffffffffffffffffffffffff1661131283610888565b73ffffffffffffffffffffffffffffffffffffffff167f8c5be1e5ebec7d5bd14f71427d1e84f3dd0314c0f7b2291e5b200ac8c7c3b92560405160405180910390a45050565b60008061136483610888565b90508073ffffffffffffffffffffffffffffffffffffffff168473ffffffffffffffffffffffffffffffffffffffff1614806113a657506113a581856110b5565b5b806113e457508373ffffffffffffffffffffffffffffffffffffffff166113cc8461052f565b73ffffffffffffffffffffffffffffffffffffffff16145b91505092915050565b8273ffffffffffffffffffffffffffffffffffffffff1661140d82610888565b73ffffffffffffffffffffffffffffffffffffffff1614611463576040517f08c379a000000000000000000000000000000000000000000000000000000000815260040161145a90613186565b60405180910390fd5b600073ffffffffffffffffffffffffffffffffffffffff168273ffffffffffffffffffffffffffffffffffffffff16036114d2576040517f08c379a00000000000000000000000000000000000000000000000000000000081526004016114c990613218565b60405180910390fd5b6114dd838383611e43565b6114e860008261129f565b6001600360008573ffffffffffffffffffffffffffffffffffffffff1673ffffffffffffffffffffffffffffffffffffffff16815260200190815260200160002060008282546115389190613267565b925050819055506001600360008473ffffffffffffffffffffffffffffffffffffffff1673ffffffffffffffffffffffffffffffffffffffff168152602001908152602001600020600082825461158f919061329b565b92505081905550816002600083815260200190815260200160002060006101000a81548173ffffffffffffffffffffffffffffffffffffffff021916908373ffffffffffffffffffffffffffffffffffffffff160217905550808273ffffffffffffffffffffffffffffffffffffffff168473ffffffffffffffffffffffffffffffffffffffff167fddf252ad1be2c89b69c2b068fc378daa952ba7f163c4a11628f55a4df523b3ef60405160405180910390a461164e838383611e48565b505050565b60606000820361169a576040518060400160405280600181526020017f300000000000000000000000000000000000000000000000000000000000000081525090506117ae565b600082905060005b600082146116cc5780806116b5906132cf565b915050600a826116c59190613317565b91506116a2565b60008167ffffffffffffffff8111156116e8576116e76125f7565b5b6040519080825280601f01601f19166020018201604052801561171a5781602001600182028036833780820191505090505b5090505b600085146117a7576001826117339190613267565b9150600a856117429190612ad4565b603061174e919061329b565b60f81b81838151811061176457611763612b05565b5b60200101907effffffffffffffffffffffffffffffffffffffffffffffffffffffffffffff1916908160001a905350600a856117a09190613317565b945061171e565b8093505050505b919050565b6000816040516020016117c69190613348565b6040516020818303038152906040528051906020012060001c9050919050565b61187e82826040516024016117fc92919061335f565b6040516020818303038152906040527fb60e72cc000000000000000000000000000000000000000000000000000000007bffffffffffffffffffffffffffffffffffffffffffffffffffffffff19166020820180517bffffffffffffffffffffffffffffffffffffffffffffffffffffffff8381831617835250505050611dae565b5050565b8173ffffffffffffffffffffffffffffffffffffffff168373ffffffffffffffffffffffffffffffffffffffff16036118f0576040517f08c379a00000000000000000000000000000000000000000000000000000000081526004016118e7906133db565b60405180910390fd5b80600560008573ffffffffffffffffffffffffffffffffffffffff1673ffffffffffffffffffffffffffffffffffffffff16815260200190815260200160002060008473ffffffffffffffffffffffffffffffffffffffff1673ffffffffffffffffffffffffffffffffffffffff16815260200190815260200160002060006101000a81548160ff0219169083151502179055508173ffffffffffffffffffffffffffffffffffffffff168373ffffffffffffffffffffffffffffffffffffffff167f17307eab39ab6107e8899845ad3d59bd9653f200f220920489ca2b5937696c31836040516119e191906122df565b60405180910390a3505050565b6119f98484846113ed565b611a0584848484611e4d565b611a44576040517f08c379a0000000000000000000000000000000000000000000000000000000008152600401611a3b9061346d565b60405180910390fd5b50505050565b606060405180602001604052806000815250905090565b6060611a6c8261124c565b6000611a76611a4a565b90506000815111611a965760405180602001604052806000815250611ac1565b80611aa084611653565b604051602001611ab1929190612d0e565b6040516020818303038152906040525b915050919050565b600081600001549050919050565b606060008251905060008103611aff5760405180602001604052806000815250915050611c69565b60006003600283611b10919061329b565b611b1a9190613317565b6004611b26919061348d565b90506000602082611b37919061329b565b67ffffffffffffffff811115611b5057611b4f6125f7565b5b6040519080825280601f01601f191660200182016040528015611b825781602001600182028036833780820191505090505b50905060006040518060600160405280604081526020016139e9604091399050600181016020830160005b86811015611c265760038101905062ffffff818a015116603f8160121c168401518060081b905060ff603f83600c1c1686015116810190508060081b905060ff603f8360061c1686015116810190508060081b905060ff603f831686015116810190508060e01b90508084526004840193505050611bad565b506003860660018114611c405760028114611c5057611c5b565b613d3d60f01b6002830352611c5b565b603d60f81b60018303525b508484525050819450505050505b919050565b611c88828260405180602001604052806000815250611fd4565b5050565b611c9582611dd7565b611cd4576040517f08c379a0000000000000000000000000000000000000000000000000000000008152600401611ccb90613541565b60405180910390fd5b80600660008481526020019081526020016000209081611cf491906136f8565b505050565b611d93838383604051602401611d11939291906137ca565b6040516020818303038152906040527f1c7ec448000000000000000000000000000000000000000000000000000000007bffffffffffffffffffffffffffffffffffffffffffffffffffffffff19166020820180517bffffffffffffffffffffffffffffffffffffffffffffffffffffffff8381831617835250505050611dae565b505050565b6001816000016000828254019250508190555050565b60008151905060006a636f6e736f6c652e6c6f679050602083016000808483855afa5050505050565b60008073ffffffffffffffffffffffffffffffffffffffff166002600084815260200190815260200160002060009054906101000a900473ffffffffffffffffffffffffffffffffffffffff1673ffffffffffffffffffffffffffffffffffffffff1614159050919050565b505050565b505050565b6000611e6e8473ffffffffffffffffffffffffffffffffffffffff1661202f565b15611fc7578373ffffffffffffffffffffffffffffffffffffffff1663150b7a02611e97611297565b8786866040518563ffffffff1660e01b8152600401611eb9949392919061385d565b6020604051808303816000875af1925050508015611ef557506040513d601f19601f82011682018060405250810190611ef291906138be565b60015b611f77573d8060008114611f25576040519150601f19603f3d011682016040523d82523d6000602084013e611f2a565b606091505b506000815103611f6f576040517f08c379a0000000000000000000000000000000000000000000000000000000008152600401611f669061346d565b60405180910390fd5b805181602001fd5b63150b7a0260e01b7bffffffffffffffffffffffffffffffffffffffffffffffffffffffff1916817bffffffffffffffffffffffffffffffffffffffffffffffffffffffff191614915050611fcc565b600190505b949350505050565b611fde8383612052565b611feb6000848484611e4d565b61202a576040517f08c379a00000000000000000000000000000000000000000000000000000000081526004016120219061346d565b60405180910390fd5b505050565b6000808273ffffffffffffffffffffffffffffffffffffffff163b119050919050565b600073ffffffffffffffffffffffffffffffffffffffff168273ffffffffffffffffffffffffffffffffffffffff16036120c1576040517f08c379a00000000000000000000000000000000000000000000000000000000081526004016120b890613937565b60405180910390fd5b6120ca81611dd7565b1561210a576040517f08c379a0000000000000000000000000000000000000000000000000000000008152600401612101906139a3565b60405180910390fd5b61211660008383611e43565b6001600360008473ffffffffffffffffffffffffffffffffffffffff1673ffffffffffffffffffffffffffffffffffffffff1681526020019081526020016000206000828254612166919061329b565b92505081905550816002600083815260200190815260200160002060006101000a81548173ffffffffffffffffffffffffffffffffffffffff021916908373ffffffffffffffffffffffffffffffffffffffff160217905550808273ffffffffffffffffffffffffffffffffffffffff16600073ffffffffffffffffffffffffffffffffffffffff167fddf252ad1be2c89b69c2b068fc378daa952ba7f163c4a11628f55a4df523b3ef60405160405180910390a461222760008383611e48565b5050565b6000604051905090565b600080fd5b600080fd5b60007fffffffff0000000000000000000000000000000000000000000000000000000082169050919050565b6122748161223f565b811461227f57600080fd5b50565b6000813590506122918161226b565b92915050565b6000602082840312156122ad576122ac612235565b5b60006122bb84828501612282565b91505092915050565b60008115159050919050565b6122d9816122c4565b82525050565b60006020820190506122f460008301846122d0565b92915050565b600081519050919050565b600082825260208201905092915050565b60005b83811015612334578082015181840152602081019050612319565b60008484015250505050565b6000601f19601f8301169050919050565b600061235c826122fa565b6123668185612305565b9350612376818560208601612316565b61237f81612340565b840191505092915050565b600060208201905081810360008301526123a48184612351565b905092915050565b6000819050919050565b6123bf816123ac565b81146123ca57600080fd5b50565b6000813590506123dc816123b6565b92915050565b6000602082840312156123f8576123f7612235565b5b6000612406848285016123cd565b91505092915050565b600073ffffffffffffffffffffffffffffffffffffffff82169050919050565b600061243a8261240f565b9050919050565b61244a8161242f565b82525050565b60006020820190506124656000830184612441565b92915050565b6124748161242f565b811461247f57600080fd5b50565b6000813590506124918161246b565b92915050565b600080604083850312156124ae576124ad612235565b5b60006124bc85828601612482565b92505060206124cd858286016123cd565b9150509250929050565b6000806000606084860312156124f0576124ef612235565b5b60006124fe86828701612482565b935050602061250f86828701612482565b9250506040612520868287016123cd565b9150509250925092565b612533816123ac565b82525050565b600060208201905061254e600083018461252a565b92915050565b60006020828403121561256a57612569612235565b5b600061257884828501612482565b91505092915050565b61258a816122c4565b811461259557600080fd5b50565b6000813590506125a781612581565b92915050565b600080604083850312156125c4576125c3612235565b5b60006125d285828601612482565b92505060206125e385828601612598565b9150509250929050565b600080fd5b600080fd5b7f4e487b7100000000000000000000000000000000000000000000000000000000600052604160045260246000fd5b61262f82612340565b810181811067ffffffffffffffff8211171561264e5761264d6125f7565b5b80604052505050565b600061266161222b565b905061266d8282612626565b919050565b600067ffffffffffffffff82111561268d5761268c6125f7565b5b61269682612340565b9050602081019050919050565b82818337600083830152505050565b60006126c56126c084612672565b612657565b9050828152602081018484840111156126e1576126e06125f2565b5b6126ec8482856126a3565b509392505050565b600082601f830112612709576127086125ed565b5b81356127198482602086016126b2565b91505092915050565b6000806000806080858703121561273c5761273b612235565b5b600061274a87828801612482565b945050602061275b87828801612482565b935050604061276c878288016123cd565b925050606085013567ffffffffffffffff81111561278d5761278c61223a565b5b612799878288016126f4565b91505092959194509250565b600080604083850312156127bc576127bb612235565b5b60006127ca85828601612482565b92505060206127db85828601612482565b9150509250929050565b7f4e487b7100000000000000000000000000000000000000000000000000000000600052602260045260246000fd5b6000600282049050600182168061282c57607f821691505b60208210810361283f5761283e6127e5565b5b50919050565b7f4552433732313a20617070726f76616c20746f2063757272656e74206f776e6560008201527f7200000000000000000000000000000000000000000000000000000000000000602082015250565b60006128a1602183612305565b91506128ac82612845565b604082019050919050565b600060208201905081810360008301526128d081612894565b9050919050565b7f4552433732313a20617070726f76652063616c6c6572206973206e6f7420746f60008201527f6b656e206f776e6572206e6f7220617070726f76656420666f7220616c6c0000602082015250565b6000612933603e83612305565b915061293e826128d7565b604082019050919050565b6000602082019050818103600083015261296281612926565b9050919050565b7f4552433732313a2063616c6c6572206973206e6f7420746f6b656e206f776e6560008201527f72206e6f7220617070726f766564000000000000000000000000000000000000602082015250565b60006129c5602e83612305565b91506129d082612969565b604082019050919050565b600060208201905081810360008301526129f4816129b8565b9050919050565b600081905092915050565b7f46495253545f574f524400000000000000000000000000000000000000000000600082015250565b6000612a3c600a836129fb565b9150612a4782612a06565b600a82019050919050565b6000612a5d826122fa565b612a6781856129fb565b9350612a77818560208601612316565b80840191505092915050565b6000612a8e82612a2f565b9150612a9a8284612a52565b915081905092915050565b7f4e487b7100000000000000000000000000000000000000000000000000000000600052601260045260246000fd5b6000612adf826123ac565b9150612aea836123ac565b925082612afa57612af9612aa5565b5b828206905092915050565b7f4e487b7100000000000000000000000000000000000000000000000000000000600052603260045260246000fd5b7f4552433732313a20696e76616c696420746f6b656e2049440000000000000000600082015250565b6000612b6a601883612305565b9150612b7582612b34565b602082019050919050565b60006020820190508181036000830152612b9981612b5d565b9050919050565b7f4552433732313a2061646472657373207a65726f206973206e6f74206120766160008201527f6c6964206f776e65720000000000000000000000000000000000000000000000602082015250565b6000612bfc602983612305565b9150612c0782612ba0565b604082019050919050565b60006020820190508181036000830152612c2b81612bef565b9050919050565b7f5345434f4e445f574f5244000000000000000000000000000000000000000000600082015250565b6000612c68600b836129fb565b9150612c7382612c32565b600b82019050919050565b6000612c8982612c5b565b9150612c958284612a52565b915081905092915050565b7f54484952445f574f524400000000000000000000000000000000000000000000600082015250565b6000612cd6600a836129fb565b9150612ce182612ca0565b600a82019050919050565b6000612cf782612cc9565b9150612d038284612a52565b915081905092915050565b6000612d1a8285612a52565b9150612d268284612a52565b91508190509392505050565b7f4e6f206d6f72652063616e20626520697373756564204e46542e000000000000600082015250565b6000612d68601a83612305565b9150612d7382612d32565b602082019050919050565b60006020820190508181036000830152612d9781612d5b565b9050919050565b6000612daa8286612a52565b9150612db68285612a52565b9150612dc28284612a52565b9150819050949350505050565b60008190508160005260206000209050919050565b60008154612df181612814565b612dfb81866129fb565b94506001821660008114612e165760018114612e2b57612e5e565b60ff1983168652811515820286019350612e5e565b612e3485612dcf565b60005b83811015612e5657815481890152600182019150602081019050612e37565b838801955050505b50505092915050565b7f3c2f746578743e3c2f7376673e00000000000000000000000000000000000000600082015250565b6000612e9d600d836129fb565b9150612ea882612e67565b600d82019050919050565b6000612ebf8285612de4565b9150612ecb8284612a52565b9150612ed682612e90565b91508190509392505050565b7f7b226e616d65223a202200000000000000000000000000000000000000000000600082015250565b6000612f18600a836129fb565b9150612f2382612ee2565b600a82019050919050565b7f222c20226465736372697074696f6e223a20224120686967686c79206163636c60008201527f61696d656420636f6c6c656374696f6e206f6620737175617265732e222c202260208201527f696d616765223a2022646174613a696d6167652f7376672b786d6c3b6261736560408201527f36342c0000000000000000000000000000000000000000000000000000000000606082015250565b6000612fd66063836129fb565b9150612fe182612f2e565b606382019050919050565b7f227d000000000000000000000000000000000000000000000000000000000000600082015250565b60006130226002836129fb565b915061302d82612fec565b600282019050919050565b600061304382612f0b565b915061304f8285612a52565b915061305a82612fc9565b91506130668284612a52565b915061307182613015565b91508190509392505050565b7f646174613a6170706c69636174696f6e2f6a736f6e3b6261736536342c000000600082015250565b60006130b3601d836129fb565b91506130be8261307d565b601d82019050919050565b60006130d4826130a6565b91506130e08284612a52565b915081905092915050565b60006040820190506131006000830185612441565b61310d602083018461252a565b9392505050565b7f4552433732313a207472616e736665722066726f6d20696e636f72726563742060008201527f6f776e6572000000000000000000000000000000000000000000000000000000602082015250565b6000613170602583612305565b915061317b82613114565b604082019050919050565b6000602082019050818103600083015261319f81613163565b9050919050565b7f4552433732313a207472616e7366657220746f20746865207a65726f2061646460008201527f7265737300000000000000000000000000000000000000000000000000000000602082015250565b6000613202602483612305565b915061320d826131a6565b604082019050919050565b60006020820190508181036000830152613231816131f5565b9050919050565b7f4e487b7100000000000000000000000000000000000000000000000000000000600052601160045260246000fd5b6000613272826123ac565b915061327d836123ac565b925082820390508181111561329557613294613238565b5b92915050565b60006132a6826123ac565b91506132b1836123ac565b92508282019050808211156132c9576132c8613238565b5b92915050565b60006132da826123ac565b91507fffffffffffffffffffffffffffffffffffffffffffffffffffffffffffffffff820361330c5761330b613238565b5b600182019050919050565b6000613322826123ac565b915061332d836123ac565b92508261333d5761333c612aa5565b5b828204905092915050565b60006133548284612a52565b915081905092915050565b600060408201905081810360008301526133798185612351565b9050613388602083018461252a565b9392505050565b7f4552433732313a20617070726f766520746f2063616c6c657200000000000000600082015250565b60006133c5601983612305565b91506133d08261338f565b602082019050919050565b600060208201905081810360008301526133f4816133b8565b9050919050565b7f4552433732313a207472616e7366657220746f206e6f6e20455243373231526560008201527f63656976657220696d706c656d656e7465720000000000000000000000000000602082015250565b6000613457603283612305565b9150613462826133fb565b604082019050919050565b600060208201905081810360008301526134868161344a565b9050919050565b6000613498826123ac565b91506134a3836123ac565b92508282026134b1816123ac565b915082820484148315176134c8576134c7613238565b5b5092915050565b7f45524337323155524953746f726167653a2055524920736574206f66206e6f6e60008201527f6578697374656e7420746f6b656e000000000000000000000000000000000000602082015250565b600061352b602e83612305565b9150613536826134cf565b604082019050919050565b6000602082019050818103600083015261355a8161351e565b9050919050565b60006020601f8301049050919050565b600082821b905092915050565b6000600883026135ae7fffffffffffffffffffffffffffffffffffffffffffffffffffffffffffffffff82613571565b6135b88683613571565b95508019841693508086168417925050509392505050565b6000819050919050565b60006135f56135f06135eb846123ac565b6135d0565b6123ac565b9050919050565b6000819050919050565b61360f836135da565b61362361361b826135fc565b84845461357e565b825550505050565b600090565b61363861362b565b613643818484613606565b505050565b5b818110156136675761365c600082613630565b600181019050613649565b5050565b601f8211156136ac5761367d81612dcf565b61368684613561565b81016020851015613695578190505b6136a96136a185613561565b830182613648565b50505b505050565b600082821c905092915050565b60006136cf600019846008026136b1565b1980831691505092915050565b60006136e883836136be565b9150826002028217905092915050565b613701826122fa565b67ffffffffffffffff81111561371a576137196125f7565b5b6137248254612814565b61372f82828561366b565b600060209050601f8311600181146137625760008415613750578287015190505b61375a85826136dc565b8655506137c2565b601f19841661377086612dcf565b60005b8281101561379857848901518255600182019150602085019450602081019050613773565b868310156137b557848901516137b1601f8916826136be565b8355505b6001600288020188555050505b505050505050565b600060608201905081810360008301526137e48186612351565b90506137f3602083018561252a565b6138006040830184612441565b949350505050565b600081519050919050565b600082825260208201905092915050565b600061382f82613808565b6138398185613813565b9350613849818560208601612316565b61385281612340565b840191505092915050565b60006080820190506138726000830187612441565b61387f6020830186612441565b61388c604083018561252a565b818103606083015261389e8184613824565b905095945050505050565b6000815190506138b88161226b565b92915050565b6000602082840312156138d4576138d3612235565b5b60006138e2848285016138a9565b91505092915050565b7f4552433732313a206d696e7420746f20746865207a65726f2061646472657373600082015250565b6000613921602083612305565b915061392c826138eb565b602082019050919050565b6000602082019050818103600083015261395081613914565b9050919050565b7f4552433732313a20746f6b656e20616c7265616479206d696e74656400000000600082015250565b600061398d601c83612305565b915061399882613957565b602082019050919050565b600060208201905081810360008301526139bc81613980565b905091905056fe416e204e465420772f20494420257320686173206265656e206d696e74656420746f2025734142434445464748494a4b4c4d4e4f505152535455565758595a6162636465666768696a6b6c6d6e6f707172737475767778797a303132333435363738392b2fa26469706673582212208ef14253ebf2515b81a9b510235126278644c61794ffad4868214a79382a36af64736f6c634300081100333c73766720786d6c6e733d27687474703a2f2f7777772e77332e6f72672f323030302f73766727207072657365727665417370656374526174696f3d27784d696e594d696e206d656574272076696577426f783d273020302033353020333530273e3c7374796c653e2e62617365207b2066696c6c3a2077686974653b20666f6e742d66616d696c793a2073657269663b20666f6e742d73697a653a20323470783b207d3c2f7374796c653e3c726563742077696474683d273130302527206865696768743d2731303025272066696c6c3d27626c61636b27202f3e3c7465787420783d273530252720793d273530252720636c6173733d27626173652720646f6d696e616e742d626173656c696e653d276d6964646c652720746578742d616e63686f723d276d6964646c65273e",
    "linkReferences": {},
    "deployedLinkReferences": {}
}